:020000040000FA
:10000000680600205D010000650100006701000036
:10001000690100006B0100006D010000000000009C
:100020000000000000000000000000006F01000060
:100030007101000000000000730100007501000064
:1000400077010000770100007701000077010000D0
:1000500077010000770100007701000077010000C0
:100060007701000077010000000000007701000028
:1000700077010000770100007701000077010000A0
:100080007701000077010000770100007701000090
:100090007701000077010000770100007701000080
:1000A0007701000077010000770100007701000070
:1000B0007701000077010000770100007701000060
:1000C00000F002F800F03AF80AA090E8000C824430
:1000D0008344AAF10107DA4501D100F02FF8AFF20D
:1000E000090EBAE80F0013F0010F18BFFB1A43F016
:1000F00001031847C0010000E0010000103A24BFCE
:1001000078C878C1FAD8520724BF30C830C144BF7C
:1001100004680C60704700000023002400250026BE
:10012000103A28BF78C1FBD8520728BF30C148BF5A
:100130000B6070471FB51FBD10B510BD00F031F842
:100140001146FFF7F7FF00F07BF800F04FF803B41B
:10015000FFF7F2FF03BC00F057F8000009488047A2
:1001600009480047FEE7FEE7FEE7FEE7FEE7FEE799
:10017000FEE7FEE7FEE7FEE704480549054A064BB1
:100180007047000019020000C10000006800002054
:10019000680600206802002068020020704770474F
:1001A0007047754600F02CF8AE4605006946534688
:1001B00020F00700854618B020B5FFF7DDFFBDE849
:1001C00020404FF000064FF000074FF000084FF0BE
:1001D000000BAC46ACE8C009ACE8C009ACE8C0090B
:1001E000ACE8C00921F007018D46704710B5044600
:1001F000AFF300802046BDE81040FFF7A8BF000025
:10020000004870470800002001491820ABBEFEE7F7
:10021000260002007047000040F200004EF6085130
:10022000C0F20000CEF20001086040F200004FF280
:100230004061C2F20000C0F2D3410160704700008B
:100240004EF210004FF65F62CEF20000C0F2CD0217
:1002500042600022052342F2000E8260036041F2F8
:100260000003CAF2000ECAF200030FF2380C1A6043
:10027000CEF80020002300BF0168C903FCD501337C
:10028000062BF9D19EF800301B0709D4D1B23CF8F7
:1002900011100904CEF80010511C01F00702E9E723
:1002A000FEE700BF00001F00FF07E007E0FFFFFFC1
:1002B0001FF800F8D802000000000020080000002D
:1002C000FC000000E00200000800002060060000C2
:1002D000180100000000000040F6D30400000000F8
:04000005000000C136
:00000001FF
